:020000040000FA
:04000000FEEF17F008
:10060000000065EC05F0000E046E000E056E000E95
:10061000066E000E076E000E086E000E096E000ECC
:100620000A6E000E0B6E036A03C001F034EC05F095
:10063000026E0E0E0218D8A420EF03F022EF03F092
:1006400026EF03F0010E036E4DEF03F00D0E0218BE
:10065000D8A42DEF03F02FEF03F033EF03F0020ED9
:10066000036E4DEF03F00B0E0218D8A43AEF03F01F
:100670003CEF03F040EF03F0030E036E4DEF03F089
:10068000070E0218D8A447EF03F049EF03F04DEF2F
:1006900003F0040E036E4DEF03F003500118D8B4BD
:1006A00054EF03F056EF03F05FEF03F0000E086E17
:1006B000000E096E000E0A6E000E0B6E816A0304B6
:1006C000D8A465EF03F067EF03F00BEF04F0010E21
:1006D0000426000E052206220722410E041809E115
:1006E0009C0E051806100710D8A479EF03F07BEFD5
:1006F00003F030EF05F0000E046E000E056E000EE4
:10070000066E000E076E0B500A10091007E1080E66
:10071000085CD8B08EEF03F090EF03F094EF03F095
:10072000D8808136EEEF03F00B500A10091009E172
:10073000080E085CD8A09FEF03F0A1EF03F0B3EF21
:1007400003F00B500A10091007E1100E085CD8B036
:10075000ACEF03F0AEEF03F0B3EF03F08150812470
:10076000816EEEEF03F00B500A10091009E1100E34
:10077000085CD8A0BEEF03F0C0EF03F0D1EF03F0A8
:100780000B500A10091007E1180E085CD8B0CBEF27
:1007900003F0CDEF03F0D1EF03F0D8808132EEEF1C
:1007A00003F00B500A10091009E1180E085CD8A0DC
:1007B000DCEF03F0DEEF03F0EEEF03F00B500A1076
:1007C000091007E1200E085CD8B0E9EF03F0EBEF69
:1007D00003F0EEEF03F0D8908130816E010E082611
:1007E000000E09220A220B220B500A10091009E1FF
:1007F000200E085CD8A0FFEF03F001EF04F030EF0B
:1008000005F0000E086E000E096E000E0A6E000E56
:100810000B6E30EF05F0020E0318D8A412EF04F0AF
:1008200014EF04F073EF04F0010E0426000E05220D
:1008300006220722410E041809E19C0E0518061035
:100840000710D8A426EF04F028EF04F030EF05F0ED
:10085000000E046E000E056E000E066E000E076E92
:100860000B500A10091007E1080E085CD8B03BEFE6
:1008700004F03DEF04F041EF04F0D88081365EEFE4
:1008800004F00B500A10091009E1080E085CD8A00A
:100890004CEF04F04EEF04F05EEF04F00B500A1042
:1008A000091007E1100E085CD8B059EF04F05BEFB7
:1008B00004F05EEF04F081508124816E010E082661
:1008C000000E09220A220B220B500A10091009E11E
:1008D000100E085CD8A06FEF04F071EF04F030EF59
:1008E00005F001EF04F0030E0318D8A47AEF04F02A
:1008F0007CEF04F0DAEF04F0010E0426000E05226E
:1009000006220722310E041809E1750E051806109B
:100910000710D8A48EEF04F090EF04F030EF05F04C
:10092000000E046E000E056E000E066E000E076EC1
:100930000B500A10091007E1040E085CD8B0A3EFB1
:1009400004F0A5EF04F0A9EF04F0550E816EC5EF99
:1009500004F00B500A10091009E1040E085CD8A03D
:10096000B4EF04F0B6EF04F0C5EF04F00B500A103A
:10097000091007E1080E085CD8B0C1EF04F0C3EF1E
:1009800004F0C5EF04F0AA0E816E010E0826000ED9
:1009900009220A220B220B500A10091009E1080E45
:1009A000085CD8A0D6EF04F0D8EF04F030EF05F0E3
:1009B00001EF04F0040E0318D8A4E1EF04F0E3EF14
:1009C00004F030EF05F0010E0426000E0522062289
:1009D0000722410E041809E19C0E051806100710A5
:1009E000D8A4F5EF04F0F7EF04F030EF05F0000EB7
:1009F000046E000E056E000E066E000E076E0850A7
:100A000009100A100B10D8A408EF05F00AEF05F042
:100A10000EEF05F00F0E816E1BEF05F008040910B4
:100A20000A100B10D8A417EF05F019EF05F01BEF13
:100A300005F0F00E816E010E0826000E09220A2232
:100A40000B220B500A10091009E1020E085CD8A015
:100A50002CEF05F02EEF05F030EF05F001EF04F07C
:100A600014EF03F0FEEF17F082500F0B0F0AD8B40B
:100A70003CEF05F03EEF05F04BEF05F00C50D8B41D
:100A800044EF05F046EF05F04BEF05F00C6A82509D
:100A90000F0B58EF05F082500F0B0F0AD8A453EF3D
:100AA00005F055EF05F057EF05F0010E0C6E0F0E37
:100AB0001200000EF66E300EF76E000EF86E090092
:100AC000F5CF0CF0000101EF03F0936A816A9450B6
:060AD0000F09946E1200F4
:052FFC0059EF05F00192
:020000040020DA
:08000000FFFFFFFFFFFFFFFF00
:020000040030CA
:0E000000FF071F1FFF8285FF0FC00FE00F409C
:00000001FF
