:020000040000FA
:04000000FEEF17F008
:100600000000936A816A000E036E000E046E000EF5
:10061000056E000E066E000E026E000E016E010EDB
:100620000326000E042205220622A10E03180AE169
:10063000860E041807E105040610D8A422EF03F083
:1006400024EF03F00FEF03F002BE32EF03F002508D
:1006500007E1080E015CD8B030EF03F032EF03F091
:1006600036EF03F0D88081366EEF03F002BE44EF20
:1006700003F0025007E1100E015CD8B042EF03F026
:1006800044EF03F049EF03F081508124816E6EEF57
:1006900003F002BE57EF03F0025007E1180E015CB1
:1006A000D8B055EF03F057EF03F05BEF03F0D880BD
:1006B00081326EEF03F002BE69EF03F0025007E1F2
:1006C000200E015CD8B067EF03F069EF03F06EEF26
:1006D00003F0D8908130816E6EEF03F0014A022A58
:1006E000000E036E000E046E000E056E000E066E08
:1006F000200E01180210D8A480EF03F082EF03F05F
:100700000FEF03F0000E026E000E016E0FEF03F00C
:0A071000FEEF17F0000101EF03F007
:042FFC008AEF03F065
:020000040020DA
:08000000FFFFFFFFFFFFFFFF00
:020000040030CA
:0E000000FF071F1FFF8285FF0FC00FE00F409C
:00000001FF
